{
  "_format": "hh-sol-artifact-1",
  "contractName": "Pool",
  "sourceName": "contracts/Pool.sol",
  "abi": [
    {
      "inputs": [
        {
          "internalType": "address",
          "name": "_borrowToken",
          "type": "address"
        }
      ],
      "stateMutability": "nonpayable",
      "type": "constructor"
    },
    {
      "inputs": [
        {
          "internalType": "address",
          "name": "collateralToken",
          "type": "address"
        }
      ],
      "name": "InvalidCollateral",
      "type": "error"
    },
    {
      "inputs": [
        {
          "internalType": "uint256",
          "name": "collateralAmount",
          "type": "uint256"
        }
      ],
      "name": "InvalidCollateralAmount",
      "type": "error"
    },
    {
      "inputs": [
        {
          "internalType": "uint256",
          "name": "expiryTime",
          "type": "uint256"
        }
      ],
      "name": "InvalidExpiryTime",
      "type": "error"
    },
    {
      "inputs": [
        {
          "internalType": "bytes32",
          "name": "key",
          "type": "bytes32"
        }
      ],
      "name": "InvalidPosition",
      "type": "error"
    },
    {
      "inputs": [
        {
          "internalType": "bytes32",
          "name": "key",
          "type": "bytes32"
        }
      ],
      "name": "PositionAlreadyCreated",
      "type": "error"
    },
    {
      "inputs": [
        {
          "internalType": "bytes32",
          "name": "key",
          "type": "bytes32"
        }
      ],
      "name": "PositionAlreadyExpired",
      "type": "error"
    },
    {
      "inputs": [
        {
          "internalType": "bytes32",
          "name": "key",
          "type": "bytes32"
        }
      ],
      "name": "PositionAlreadyFilled",
      "type": "error"
    },
    {
      "inputs": [
        {
          "internalType": "bytes32",
          "name": "key",
          "type": "bytes32"
        }
      ],
      "name": "PositionAlreadySettled",
      "type": "error"
    },
    {
      "inputs": [
        {
          "internalType": "address",
          "name": "to",
          "type": "address"
        },
        {
          "internalType": "uint256",
          "name": "amount",
          "type": "uint256"
        }
      ],
      "name": "SafeTransferFailed",
      "type": "error"
    },
    {
      "anonymous": false,
      "inputs": [
        {
          "indexed": true,
          "internalType": "address",
          "name": "previousOwner",
          "type": "address"
        },
        {
          "indexed": true,
          "internalType": "address",
          "name": "newOwner",
          "type": "address"
        }
      ],
      "name": "OwnershipTransferred",
      "type": "event"
    },
    {
      "inputs": [],
      "name": "ANNUAL_RATE",
      "outputs": [
        {
          "internalType": "uint256",
          "name": "",
          "type": "uint256"
        }
      ],
      "stateMutability": "view",
      "type": "function"
    },
    {
      "inputs": [],
      "name": "BASIS_POINTS_DIVISOR",
      "outputs": [
        {
          "internalType": "uint256",
          "name": "",
          "type": "uint256"
        }
      ],
      "stateMutability": "view",
      "type": "function"
    },
    {
      "inputs": [],
      "name": "BORROW_TOKEN",
      "outputs": [
        {
          "internalType": "address",
          "name": "",
          "type": "address"
        }
      ],
      "stateMutability": "view",
      "type": "function"
    },
    {
      "inputs": [],
      "name": "COLLATERAL_EXPIRY_RATE",
      "outputs": [
        {
          "internalType": "uint256",
          "name": "",
          "type": "uint256"
        }
      ],
      "stateMutability": "view",
      "type": "function"
    },
    {
      "inputs": [],
      "name": "SECONDS_IN_YEAR",
      "outputs": [
        {
          "internalType": "uint256",
          "name": "",
          "type": "uint256"
        }
      ],
      "stateMutability": "view",
      "type": "function"
    },
    {
      "inputs": [
        {
          "internalType": "bytes32",
          "name": "key",
          "type": "bytes32"
        }
      ],
      "name": "amountToPayoff",
      "outputs": [
        {
          "internalType": "uint256",
          "name": "",
          "type": "uint256"
        }
      ],
      "stateMutability": "view",
      "type": "function"
    },
    {
      "inputs": [
        {
          "internalType": "uint256",
          "name": "",
          "type": "uint256"
        }
      ],
      "name": "borrows",
      "outputs": [
        {
          "internalType": "address",
          "name": "",
          "type": "address"
        }
      ],
      "stateMutability": "view",
      "type": "function"
    },
    {
      "inputs": [
        {
          "internalType": "address",
          "name": "_collateralToken",
          "type": "address"
        },
        {
          "internalType": "uint256",
          "name": "_expiryTime",
          "type": "uint256"
        }
      ],
      "name": "cancel",
      "outputs": [],
      "stateMutability": "nonpayable",
      "type": "function"
    },
    {
      "inputs": [
        {
          "internalType": "address",
          "name": "borrower",
          "type": "address"
        },
        {
          "internalType": "address",
          "name": "_collateralToken",
          "type": "address"
        },
        {
          "internalType": "uint256",
          "name": "_expiryTime",
          "type": "uint256"
        }
      ],
      "name": "claim",
      "outputs": [],
      "stateMutability": "nonpayable",
      "type": "function"
    },
    {
      "inputs": [
        {
          "internalType": "address",
          "name": "_collateralToken",
          "type": "address"
        },
        {
          "internalType": "uint256",
          "name": "_collateralAmount",
          "type": "uint256"
        },
        {
          "internalType": "uint256",
          "name": "_requestedBorrowAmount",
          "type": "uint256"
        },
        {
          "internalType": "uint256",
          "name": "_expiryTime",
          "type": "uint256"
        }
      ],
      "name": "create",
      "outputs": [],
      "stateMutability": "nonpayable",
      "type": "function"
    },
    {
      "inputs": [],
      "name": "fetchAllPositions",
      "outputs": [
        {
          "components": [
            {
              "internalType": "address",
              "name": "borrower",
              "type": "address"
            },
            {
              "internalType": "address",
              "name": "lender",
              "type": "address"
            },
            {
              "internalType": "bool",
              "name": "isActive",
              "type": "bool"
            },
            {
              "internalType": "bool",
              "name": "isFilled",
              "type": "bool"
            },
            {
              "internalType": "bool",
              "name": "isSettled",
              "type": "bool"
            },
            {
              "internalType": "address",
              "name": "collateral",
              "type": "address"
            },
            {
              "internalType": "uint256",
              "name": "collateralAmount",
              "type": "uint256"
            },
            {
              "internalType": "uint256",
              "name": "borrowAmount",
              "type": "uint256"
            },
            {
              "internalType": "uint256",
              "name": "startTime",
              "type": "uint256"
            },
            {
              "internalType": "uint256",
              "name": "expiryTime",
              "type": "uint256"
            }
          ],
          "internalType": "struct Pool.Loan[]",
          "name": "",
          "type": "tuple[]"
        }
      ],
      "stateMutability": "view",
      "type": "function"
    },
    {
      "inputs": [
        {
          "internalType": "address",
          "name": "borrower",
          "type": "address"
        },
        {
          "internalType": "address",
          "name": "_collateralToken",
          "type": "address"
        },
        {
          "internalType": "uint256",
          "name": "_expiryTime",
          "type": "uint256"
        }
      ],
      "name": "fill",
      "outputs": [],
      "stateMutability": "nonpayable",
      "type": "function"
    },
    {
      "inputs": [
        {
          "internalType": "address",
          "name": "_account",
          "type": "address"
        },
        {
          "internalType": "address",
          "name": "_collateralToken",
          "type": "address"
        },
        {
          "internalType": "address",
          "name": "_borrowToken",
          "type": "address"
        },
        {
          "internalType": "uint256",
          "name": "_expiryTime",
          "type": "uint256"
        }
      ],
      "name": "getPositionKey",
      "outputs": [
        {
          "internalType": "bytes32",
          "name": "",
          "type": "bytes32"
        }
      ],
      "stateMutability": "pure",
      "type": "function"
    },
    {
      "inputs": [],
      "name": "numBorrows",
      "outputs": [
        {
          "internalType": "uint256",
          "name": "",
          "type": "uint256"
        }
      ],
      "stateMutability": "view",
      "type": "function"
    },
    {
      "inputs": [],
      "name": "owner",
      "outputs": [
        {
          "internalType": "address",
          "name": "",
          "type": "address"
        }
      ],
      "stateMutability": "view",
      "type": "function"
    },
    {
      "inputs": [
        {
          "internalType": "uint256",
          "name": "",
          "type": "uint256"
        }
      ],
      "name": "positionIds",
      "outputs": [
        {
          "internalType": "bytes32",
          "name": "",
          "type": "bytes32"
        }
      ],
      "stateMutability": "view",
      "type": "function"
    },
    {
      "inputs": [
        {
          "internalType": "bytes32",
          "name": "",
          "type": "bytes32"
        }
      ],
      "name": "positions",
      "outputs": [
        {
          "internalType": "address",
          "name": "borrower",
          "type": "address"
        },
        {
          "internalType": "address",
          "name": "lender",
          "type": "address"
        },
        {
          "internalType": "bool",
          "name": "isActive",
          "type": "bool"
        },
        {
          "internalType": "bool",
          "name": "isFilled",
          "type": "bool"
        },
        {
          "internalType": "bool",
          "name": "isSettled",
          "type": "bool"
        },
        {
          "internalType": "address",
          "name": "collateral",
          "type": "address"
        },
        {
          "internalType": "uint256",
          "name": "collateralAmount",
          "type": "uint256"
        },
        {
          "internalType": "uint256",
          "name": "borrowAmount",
          "type": "uint256"
        },
        {
          "internalType": "uint256",
          "name": "startTime",
          "type": "uint256"
        },
        {
          "internalType": "uint256",
          "name": "expiryTime",
          "type": "uint256"
        }
      ],
      "stateMutability": "view",
      "type": "function"
    },
    {
      "inputs": [],
      "name": "renounceOwnership",
      "outputs": [],
      "stateMutability": "nonpayable",
      "type": "function"
    },
    {
      "inputs": [
        {
          "internalType": "address",
          "name": "borrower",
          "type": "address"
        },
        {
          "internalType": "address",
          "name": "_collateralToken",
          "type": "address"
        },
        {
          "internalType": "uint256",
          "name": "_expiryTime",
          "type": "uint256"
        }
      ],
      "name": "repay",
      "outputs": [],
      "stateMutability": "nonpayable",
      "type": "function"
    },
    {
      "inputs": [
        {
          "internalType": "address",
          "name": "newOwner",
          "type": "address"
        }
      ],
      "name": "transferOwnership",
      "outputs": [],
      "stateMutability": "nonpayable",
      "type": "function"
    }
  ],
  "bytecode": "0x60a06040526107d060015534801561001657600080fd5b506040516115b13803806115b18339810160408190526100359161009f565b61003e3361004f565b6001600160a01b03166080526100cf565b600080546001600160a01b038381166001600160a01b0319831681178455604051919092169283917f8be0079c531659141344cd1fd0a4f28419497f9722a3daafe3b4186f6b6457e09190a35050565b6000602082840312156100b157600080fd5b81516001600160a01b03811681146100c857600080fd5b9392505050565b6080516114886101296000396000818161018a01528181610378015281816104380152818161048001528181610789015281816108d50152818161095e01528181610b2f01528181610c230152610c5801526114886000f3fe608060405234801561001057600080fd5b50600436106100fc5760003560e01c8063126082cf14610101578063191e9d7c1461011d5780631da649cf1461014857806328fc1ad01461015d5780634078503d146101725780634c90f25c146101855780634cabd3aa146101ac578063514ea4bf146101b55780635dcc939114610293578063715018a61461029e5780638c71ec16146102a65780638da5cb5b146102b957806390436177146102c1578063939c5f7a146102ca57806398590ef9146102dd578063996cba68146102f0578063c6bee3b014610303578063dab3d74214610316578063e6f71fbf14610329578063f2fde38b14610332575b600080fd5b61010a61271081565b6040519081526020015b60405180910390f35b61013061012b3660046110e0565b610345565b6040516001600160a01b039091168152602001610114565b61015b610156366004611122565b61036f565b005b610165610509565b604051610114919061115e565b61010a6101803660046110e0565b6106ba565b6101307f000000000000000000000000000000000000000000000000000000000000000081565b61010a60055481565b61022e6101c33660046110e0565b600260208190526000918252604090912080546001820154928201546003830154600484015460058501546006909501546001600160a01b03948516968086169660ff600160a01b8304811697600160a81b8404821697600160b01b9094049091169592169391928a565b604080516001600160a01b039b8c168152998b1660208b01529715159789019790975294151560608801529215156080870152951660a085015260c084019490945260e083019390935261010082019290925261012081019190915261014001610114565b61010a6301e1338081565b61015b610721565b61015b6102b4366004611221565b610735565b61013061089c565b61010a614e2081565b61010a6102d83660046110e0565b6108ab565b61015b6102eb36600461125a565b6108cc565b61015b6102fe366004611122565b610955565b61010a610311366004611284565b610ace565b61015b610324366004611122565b610b26565b61010a60015481565b61015b6103403660046112cf565b610cbd565b6004818154811061035557600080fd5b6000918252602090912001546001600160a01b0316905081565b600061039d84847f000000000000000000000000000000000000000000000000000000000000000085610ace565b600081815260026020819052604090912001549091506001600160a01b03166103e157604051638ea9158f60e01b8152600481018290526024015b60405180910390fd5b600081815260026020526040902060010154600160b01b900460ff161561041e5760405163c4ee240b60e01b8152600481018290526024016103d8565b6000610429826106ba565b90506104606001600160a01b037f000000000000000000000000000000000000000000000000000000000000000016333084610d36565b6000828152600260205260409020600101546104a9906001600160a01b037f00000000000000000000000000000000000000000000000000000000000000008116911683610da7565b6000828152600260205260409020600301546104d1906001600160a01b038616908790610da7565b50600090815260026020526040902080546001600160a01b03191633178155600101805460ff60b01b1916600160b01b179055505050565b6003546060906000906001600160401b03811115610529576105296112ea565b6040519080825280602002602001820160405280156105a857816020015b604080516101408101825260008082526020808301829052928201819052606082018190526080820181905260a0820181905260c0820181905260e08201819052610100820181905261012082015282526000199092019101816105475790505b50905060005b6003548110156106b45760026000600383815481106105cf576105cf611300565b60009182526020808320909101548352828101939093526040918201902081516101408101835281546001600160a01b03908116825260018301548082169583019590955260ff600160a01b86048116151594830194909452600160a81b8504841615156060830152600160b01b90940490921615156080830152600281015490921660a0820152600382015460c0820152600482015460e08201526005820154610100820152600690910154610120820152825183908390811061069657610696611300565b602002602001018190525080806106ac9061132c565b9150506105ae565b50919050565b60006106cc6127106301e13380611345565b6001546000848152600260205260409020600501546106eb9042611364565b6106f59190611345565b6106ff919061137b565b60008381526002602052604090206004015461071b919061139d565b92915050565b610729610ddc565b6107336000610e3b565b565b8383828160000361075c57604051631686460160e21b8152600481018390526024016103d8565b80600003610780576040516307dc928360e31b8152600481018290526024016103d8565b60006107ae33897f000000000000000000000000000000000000000000000000000000000000000088610ace565b600081815260026020819052604090912001549091506001600160a01b0316156107ee57604051630e683bc560e31b8152600481018290526024016103d8565b6000818152600260208190526040822080546001600160a01b03199081163390811783556001808401805460ff60a01b1916600160a01b17905593830180546001600160a01b038f1693168317905560038084018d9055600484018c9055600684018b9055805494850181559094527fc2575a0e9e593c00f959f8c92f12db2869c3395a3b0502d05e2516446f71f85b909201849055916108919190308b610d36565b505050505050505050565b6000546001600160a01b031690565b600381815481106108bb57600080fd5b600091825260209091200154905081565b60006108fa33847f000000000000000000000000000000000000000000000000000000000000000085610ace565b6000908152600260208190526040822080546001600160a01b031990811682556001820180546001600160b81b0319169055918101805490921690915560038101829055600481018290556005810182905560060155505050565b600061098384847f000000000000000000000000000000000000000000000000000000000000000085610ace565b600081815260026020819052604090912001549091506001600160a01b03166109c257604051638ea9158f60e01b8152600481018290526024016103d8565b600081815260026020526040902060010154600160b01b900460ff16156109ff5760405163c4ee240b60e01b8152600481018290526024016103d8565b600081815260026020526040812060018101805460ff60b01b1916600160b01b17905560038101546006909101546127109190614e20906301e1338090610a469042611364565b610a50919061137b565b610a5a9190611345565b610a649190611345565b610a6e919061137b565b60008381526002602081905260409091206001810154910154919250610aa1916001600160a01b03908116911683610da7565b60008281526002602052604081206003018054839290610ac2908490611364565b90915550505050505050565b6040516001600160601b0319606086811b8216602084015285811b8216603484015284901b166048820152605c8101829052600090607c01604051602081830303815290604052805190602001209050949350505050565b6000610b5484847f000000000000000000000000000000000000000000000000000000000000000085610ace565b600081815260026020819052604090912001549091506001600160a01b0316610b9357604051638ea9158f60e01b8152600481018290526024016103d8565b600081815260026020526040902060010154600160a01b900460ff16610bcf576040516316e13d9360e11b8152600481018290526024016103d8565b600081815260026020526040902060060154421115610c04576040516379fa49e160e01b8152600481018290526024016103d8565b600081815260026020526040902060040154610c4b6001600160a01b037f000000000000000000000000000000000000000000000000000000000000000016333084610d36565b610c7f6001600160a01b037f0000000000000000000000000000000000000000000000000000000000000000168683610da7565b50600090815260026020526040902060018101805460ff60a01b1933166001600160a81b031990911617600160a01b17905542600590910155505050565b610cc5610ddc565b6001600160a01b038116610d2a5760405162461bcd60e51b815260206004820152602660248201527f4f776e61626c653a206e6577206f776e657220697320746865207a65726f206160448201526564647265737360d01b60648201526084016103d8565b610d3381610e3b565b50565b6040516001600160a01b0380851660248301528316604482015260648101829052610da19085906323b872dd60e01b906084015b60408051601f198184030181529190526020810180516001600160e01b03166001600160e01b031990931692909217909152610e8b565b50505050565b6040516001600160a01b038316602482015260448101829052610dd790849063a9059cbb60e01b90606401610d6a565b505050565b33610de561089c565b6001600160a01b0316146107335760405162461bcd60e51b815260206004820181905260248201527f4f776e61626c653a2063616c6c6572206973206e6f7420746865206f776e657260448201526064016103d8565b600080546001600160a01b038381166001600160a01b0319831681178455604051919092169283917f8be0079c531659141344cd1fd0a4f28419497f9722a3daafe3b4186f6b6457e09190a35050565b6000610ee0826040518060400160405280602081526020017f5361666545524332303a206c6f772d6c6576656c2063616c6c206661696c6564815250856001600160a01b0316610f5d9092919063ffffffff16565b805190915015610dd75780806020019051810190610efe91906113b5565b610dd75760405162461bcd60e51b815260206004820152602a60248201527f5361666545524332303a204552433230206f7065726174696f6e20646964206e6044820152691bdd081cdd58d8d9595960b21b60648201526084016103d8565b6060610f6c8484600085610f76565b90505b9392505050565b606082471015610fd75760405162461bcd60e51b815260206004820152602660248201527f416464726573733a20696e73756666696369656e742062616c616e636520666f6044820152651c8818d85b1b60d21b60648201526084016103d8565b6001600160a01b0385163b61102e5760405162461bcd60e51b815260206004820152601d60248201527f416464726573733a2063616c6c20746f206e6f6e2d636f6e747261637400000060448201526064016103d8565b600080866001600160a01b0316858760405161104a9190611403565b60006040518083038185875af1925050503d8060008114611087576040519150601f19603f3d011682016040523d82523d6000602084013e61108c565b606091505b509150915061109c8282866110a7565b979650505050505050565b606083156110b6575081610f6f565b8251156110c65782518084602001fd5b8160405162461bcd60e51b81526004016103d8919061141f565b6000602082840312156110f257600080fd5b5035919050565b6001600160a01b03169052565b80356001600160a01b038116811461111d57600080fd5b919050565b60008060006060848603121561113757600080fd5b61114084611106565b925061114e60208501611106565b9150604084013590509250925092565b602080825282518282018190526000919060409081850190868401855b828110156112145781516111908582516110f9565b868101516111a0888701826110f9565b508581015115158587015260608082015115159086015260808082015115159086015260a0808201516111d5828801826110f9565b505060c0818101519086015260e0808201519086015261010080820151908601526101209081015190850152610140909301929085019060010161117b565b5091979650505050505050565b6000806000806080858703121561123757600080fd5b61124085611106565b966020860135965060408601359560600135945092505050565b6000806040838503121561126d57600080fd5b61127683611106565b946020939093013593505050565b6000806000806080858703121561129a57600080fd5b6112a385611106565b93506112b160208601611106565b92506112bf60408601611106565b9396929550929360600135925050565b6000602082840312156112e157600080fd5b610f6f82611106565b634e487b7160e01b600052604160045260246000fd5b634e487b7160e01b600052603260045260246000fd5b634e487b7160e01b600052601160045260246000fd5b60006001820161133e5761133e611316565b5060010190565b600081600019048311821515161561135f5761135f611316565b500290565b60008282101561137657611376611316565b500390565b60008261139857634e487b7160e01b600052601260045260246000fd5b500490565b600082198211156113b0576113b0611316565b500190565b6000602082840312156113c757600080fd5b81518015158114610f6f57600080fd5b60005b838110156113f25781810151838201526020016113da565b83811115610da15750506000910152565b600082516114158184602087016113d7565b9190910192915050565b602081526000825180602084015261143e8160408501602087016113d7565b601f01601f1916919091016040019291505056fea2646970667358221220c31625a3756c604bb0bfa6c2204ae56d652e94f9731c6948feffcbced859ff0d64736f6c634300080d0033",
  "linkReferences": {},
  "deployedLinkReferences": {}
}