{
  "_format": "hh-sol-artifact-1",
  "contractName": "Pool",
  "sourceName": "contracts/Pool.sol",
  "abi": [
    {
      "inputs": [
        {
          "internalType": "address",
          "name": "_borrowToken",
          "type": "address"
        }
      ],
      "stateMutability": "nonpayable",
      "type": "constructor"
    },
    {
      "inputs": [
        {
          "internalType": "address",
          "name": "collateralToken",
          "type": "address"
        }
      ],
      "name": "InvalidCollateral",
      "type": "error"
    },
    {
      "inputs": [
        {
          "internalType": "uint256",
          "name": "collateralAmount",
          "type": "uint256"
        }
      ],
      "name": "InvalidCollateralAmount",
      "type": "error"
    },
    {
      "inputs": [
        {
          "internalType": "uint256",
          "name": "expiryTime",
          "type": "uint256"
        }
      ],
      "name": "InvalidExpiryTime",
      "type": "error"
    },
    {
      "inputs": [
        {
          "internalType": "bytes32",
          "name": "key",
          "type": "bytes32"
        }
      ],
      "name": "InvalidPosition",
      "type": "error"
    },
    {
      "inputs": [
        {
          "internalType": "bytes32",
          "name": "key",
          "type": "bytes32"
        }
      ],
      "name": "PositionAlreadyCreated",
      "type": "error"
    },
    {
      "inputs": [
        {
          "internalType": "bytes32",
          "name": "key",
          "type": "bytes32"
        }
      ],
      "name": "PositionAlreadyExpired",
      "type": "error"
    },
    {
      "inputs": [
        {
          "internalType": "bytes32",
          "name": "key",
          "type": "bytes32"
        }
      ],
      "name": "PositionAlreadyFilled",
      "type": "error"
    },
    {
      "inputs": [
        {
          "internalType": "bytes32",
          "name": "key",
          "type": "bytes32"
        }
      ],
      "name": "PositionAlreadySettled",
      "type": "error"
    },
    {
      "inputs": [
        {
          "internalType": "address",
          "name": "to",
          "type": "address"
        },
        {
          "internalType": "uint256",
          "name": "amount",
          "type": "uint256"
        }
      ],
      "name": "SafeTransferFailed",
      "type": "error"
    },
    {
      "anonymous": false,
      "inputs": [
        {
          "indexed": true,
          "internalType": "address",
          "name": "previousOwner",
          "type": "address"
        },
        {
          "indexed": true,
          "internalType": "address",
          "name": "newOwner",
          "type": "address"
        }
      ],
      "name": "OwnershipTransferred",
      "type": "event"
    },
    {
      "inputs": [],
      "name": "ANNUAL_RATE",
      "outputs": [
        {
          "internalType": "uint256",
          "name": "",
          "type": "uint256"
        }
      ],
      "stateMutability": "view",
      "type": "function"
    },
    {
      "inputs": [],
      "name": "BASIS_POINTS_DIVISOR",
      "outputs": [
        {
          "internalType": "uint256",
          "name": "",
          "type": "uint256"
        }
      ],
      "stateMutability": "view",
      "type": "function"
    },
    {
      "inputs": [],
      "name": "BORROW_TOKEN",
      "outputs": [
        {
          "internalType": "address",
          "name": "",
          "type": "address"
        }
      ],
      "stateMutability": "view",
      "type": "function"
    },
    {
      "inputs": [],
      "name": "COLLATERAL_EXPIRY_RATE",
      "outputs": [
        {
          "internalType": "uint256",
          "name": "",
          "type": "uint256"
        }
      ],
      "stateMutability": "view",
      "type": "function"
    },
    {
      "inputs": [],
      "name": "SECONDS_IN_YEAR",
      "outputs": [
        {
          "internalType": "uint256",
          "name": "",
          "type": "uint256"
        }
      ],
      "stateMutability": "view",
      "type": "function"
    },
    {
      "inputs": [
        {
          "internalType": "bytes32",
          "name": "key",
          "type": "bytes32"
        }
      ],
      "name": "amountToPayoff",
      "outputs": [
        {
          "internalType": "uint256",
          "name": "",
          "type": "uint256"
        }
      ],
      "stateMutability": "view",
      "type": "function"
    },
    {
      "inputs": [
        {
          "internalType": "uint256",
          "name": "",
          "type": "uint256"
        }
      ],
      "name": "borrows",
      "outputs": [
        {
          "internalType": "address",
          "name": "",
          "type": "address"
        }
      ],
      "stateMutability": "view",
      "type": "function"
    },
    {
      "inputs": [
        {
          "internalType": "address",
          "name": "_collateralToken",
          "type": "address"
        },
        {
          "internalType": "uint256",
          "name": "_expiryTime",
          "type": "uint256"
        }
      ],
      "name": "cancel",
      "outputs": [],
      "stateMutability": "nonpayable",
      "type": "function"
    },
    {
      "inputs": [
        {
          "internalType": "address",
          "name": "borrower",
          "type": "address"
        },
        {
          "internalType": "address",
          "name": "_collateralToken",
          "type": "address"
        },
        {
          "internalType": "uint256",
          "name": "_expiryTime",
          "type": "uint256"
        }
      ],
      "name": "claim",
      "outputs": [],
      "stateMutability": "nonpayable",
      "type": "function"
    },
    {
      "inputs": [
        {
          "internalType": "address",
          "name": "_collateralToken",
          "type": "address"
        },
        {
          "internalType": "uint256",
          "name": "_collateralAmount",
          "type": "uint256"
        },
        {
          "internalType": "uint256",
          "name": "_requestedBorrowAmount",
          "type": "uint256"
        },
        {
          "internalType": "uint256",
          "name": "_expiryTime",
          "type": "uint256"
        }
      ],
      "name": "create",
      "outputs": [],
      "stateMutability": "nonpayable",
      "type": "function"
    },
    {
      "inputs": [
        {
          "internalType": "address",
          "name": "borrower",
          "type": "address"
        },
        {
          "internalType": "address",
          "name": "_collateralToken",
          "type": "address"
        },
        {
          "internalType": "uint256",
          "name": "_expiryTime",
          "type": "uint256"
        }
      ],
      "name": "fill",
      "outputs": [],
      "stateMutability": "nonpayable",
      "type": "function"
    },
    {
      "inputs": [
        {
          "internalType": "address",
          "name": "_account",
          "type": "address"
        },
        {
          "internalType": "address",
          "name": "_collateralToken",
          "type": "address"
        },
        {
          "internalType": "address",
          "name": "_borrowToken",
          "type": "address"
        },
        {
          "internalType": "uint256",
          "name": "_expiryTime",
          "type": "uint256"
        }
      ],
      "name": "getPositionKey",
      "outputs": [
        {
          "internalType": "bytes32",
          "name": "",
          "type": "bytes32"
        }
      ],
      "stateMutability": "pure",
      "type": "function"
    },
    {
      "inputs": [],
      "name": "numBorrows",
      "outputs": [
        {
          "internalType": "uint256",
          "name": "",
          "type": "uint256"
        }
      ],
      "stateMutability": "view",
      "type": "function"
    },
    {
      "inputs": [],
      "name": "owner",
      "outputs": [
        {
          "internalType": "address",
          "name": "",
          "type": "address"
        }
      ],
      "stateMutability": "view",
      "type": "function"
    },
    {
      "inputs": [
        {
          "internalType": "uint256",
          "name": "",
          "type": "uint256"
        }
      ],
      "name": "positionIds",
      "outputs": [
        {
          "internalType": "bytes32",
          "name": "",
          "type": "bytes32"
        }
      ],
      "stateMutability": "view",
      "type": "function"
    },
    {
      "inputs": [
        {
          "internalType": "bytes32",
          "name": "",
          "type": "bytes32"
        }
      ],
      "name": "positions",
      "outputs": [
        {
          "internalType": "address",
          "name": "borrower",
          "type": "address"
        },
        {
          "internalType": "address",
          "name": "lender",
          "type": "address"
        },
        {
          "internalType": "bool",
          "name": "isActive",
          "type": "bool"
        },
        {
          "internalType": "bool",
          "name": "isFilled",
          "type": "bool"
        },
        {
          "internalType": "bool",
          "name": "isSettled",
          "type": "bool"
        },
        {
          "internalType": "address",
          "name": "collateral",
          "type": "address"
        },
        {
          "internalType": "uint256",
          "name": "collateralAmount",
          "type": "uint256"
        },
        {
          "internalType": "uint256",
          "name": "borrowAmount",
          "type": "uint256"
        },
        {
          "internalType": "uint256",
          "name": "startTime",
          "type": "uint256"
        },
        {
          "internalType": "uint256",
          "name": "expiryTime",
          "type": "uint256"
        }
      ],
      "stateMutability": "view",
      "type": "function"
    },
    {
      "inputs": [],
      "name": "renounceOwnership",
      "outputs": [],
      "stateMutability": "nonpayable",
      "type": "function"
    },
    {
      "inputs": [
        {
          "internalType": "address",
          "name": "borrower",
          "type": "address"
        },
        {
          "internalType": "address",
          "name": "_collateralToken",
          "type": "address"
        },
        {
          "internalType": "uint256",
          "name": "_expiryTime",
          "type": "uint256"
        }
      ],
      "name": "repay",
      "outputs": [],
      "stateMutability": "nonpayable",
      "type": "function"
    },
    {
      "inputs": [
        {
          "internalType": "address",
          "name": "newOwner",
          "type": "address"
        }
      ],
      "name": "transferOwnership",
      "outputs": [],
      "stateMutability": "nonpayable",
      "type": "function"
    }
  ],
  "bytecode": "0x60a06040526107d060015534801561001657600080fd5b506040516112cb3803806112cb8339810160408190526100359161009f565b61003e3361004f565b6001600160a01b03166080526100cf565b600080546001600160a01b038381166001600160a01b0319831681178455604051919092169283917f8be0079c531659141344cd1fd0a4f28419497f9722a3daafe3b4186f6b6457e09190a35050565b6000602082840312156100b157600080fd5b81516001600160a01b03811681146100c857600080fd5b9392505050565b6080516111a26101296000396000818161016a015281816103580152818161041801528181610460015281816105b8015281816107040152818161078d0152818161095e01528181610a520152610a8701526111a26000f3fe608060405234801561001057600080fd5b50600436106100f15760003560e01c8063126082cf146100f6578063191e9d7c146101125780631da649cf1461013d5780634078503d146101525780634c90f25c146101655780634cabd3aa1461018c578063514ea4bf146101955780635dcc939114610273578063715018a61461027e5780638c71ec16146102865780638da5cb5b1461029957806390436177146102a1578063939c5f7a146102aa57806398590ef9146102bd578063996cba68146102d0578063c6bee3b0146102e3578063dab3d742146102f6578063e6f71fbf14610309578063f2fde38b14610312575b600080fd5b6100ff61271081565b6040519081526020015b60405180910390f35b610125610120366004610f0f565b610325565b6040516001600160a01b039091168152602001610109565b61015061014b366004610f44565b61034f565b005b6100ff610160366004610f0f565b6104e9565b6101257f000000000000000000000000000000000000000000000000000000000000000081565b6100ff60055481565b61020e6101a3366004610f0f565b600260208190526000918252604090912080546001820154928201546003830154600484015460058501546006909501546001600160a01b03948516968086169660ff600160a01b8304811697600160a81b8404821697600160b01b9094049091169592169391928a565b604080516001600160a01b039b8c168152998b1660208b01529715159789019790975294151560608801529215156080870152951660a085015260c084019490945260e083019390935261010082019290925261012081019190915261014001610109565b6100ff6301e1338081565b610150610550565b610150610294366004610f80565b610564565b6101256106cb565b6100ff614e2081565b6100ff6102b8366004610f0f565b6106da565b6101506102cb366004610fb9565b6106fb565b6101506102de366004610f44565b610784565b6100ff6102f1366004610fe3565b6108fd565b610150610304366004610f44565b610955565b6100ff60015481565b61015061032036600461102e565b610aec565b6004818154811061033557600080fd5b6000918252602090912001546001600160a01b0316905081565b600061037d84847f0000000000000000000000000000000000000000000000000000000000000000856108fd565b600081815260026020819052604090912001549091506001600160a01b03166103c157604051638ea9158f60e01b8152600481018290526024015b60405180910390fd5b600081815260026020526040902060010154600160b01b900460ff16156103fe5760405163c4ee240b60e01b8152600481018290526024016103b8565b6000610409826104e9565b90506104406001600160a01b037f000000000000000000000000000000000000000000000000000000000000000016333084610b65565b600082815260026020526040902060010154610489906001600160a01b037f00000000000000000000000000000000000000000000000000000000000000008116911683610bd6565b6000828152600260205260409020600301546104b1906001600160a01b038616908790610bd6565b50600090815260026020526040902080546001600160a01b03191633178155600101805460ff60b01b1916600160b01b179055505050565b60006104fb6127106301e1338061105f565b60015460008481526002602052604090206005015461051a904261107e565b610524919061105f565b61052e9190611095565b60008381526002602052604090206004015461054a91906110b7565b92915050565b610558610c0b565b6105626000610c6a565b565b8383828160000361058b57604051631686460160e21b8152600481018390526024016103b8565b806000036105af576040516307dc928360e31b8152600481018290526024016103b8565b60006105dd33897f0000000000000000000000000000000000000000000000000000000000000000886108fd565b600081815260026020819052604090912001549091506001600160a01b03161561061d57604051630e683bc560e31b8152600481018290526024016103b8565b6000818152600260208190526040822080546001600160a01b03199081163390811783556001808401805460ff60a01b1916600160a01b17905593830180546001600160a01b038f1693168317905560038084018d9055600484018c9055600684018b9055805494850181559094527fc2575a0e9e593c00f959f8c92f12db2869c3395a3b0502d05e2516446f71f85b909201849055916106c09190308b610b65565b505050505050505050565b6000546001600160a01b031690565b600381815481106106ea57600080fd5b600091825260209091200154905081565b600061072933847f0000000000000000000000000000000000000000000000000000000000000000856108fd565b6000908152600260208190526040822080546001600160a01b031990811682556001820180546001600160b81b0319169055918101805490921690915560038101829055600481018290556005810182905560060155505050565b60006107b284847f0000000000000000000000000000000000000000000000000000000000000000856108fd565b600081815260026020819052604090912001549091506001600160a01b03166107f157604051638ea9158f60e01b8152600481018290526024016103b8565b600081815260026020526040902060010154600160b01b900460ff161561082e5760405163c4ee240b60e01b8152600481018290526024016103b8565b600081815260026020526040812060018101805460ff60b01b1916600160b01b17905560038101546006909101546127109190614e20906301e1338090610875904261107e565b61087f9190611095565b610889919061105f565b610893919061105f565b61089d9190611095565b600083815260026020819052604090912060018101549101549192506108d0916001600160a01b03908116911683610bd6565b600082815260026020526040812060030180548392906108f190849061107e565b90915550505050505050565b6040516001600160601b0319606086811b8216602084015285811b8216603484015284901b166048820152605c8101829052600090607c01604051602081830303815290604052805190602001209050949350505050565b600061098384847f0000000000000000000000000000000000000000000000000000000000000000856108fd565b600081815260026020819052604090912001549091506001600160a01b03166109c257604051638ea9158f60e01b8152600481018290526024016103b8565b600081815260026020526040902060010154600160a01b900460ff166109fe576040516316e13d9360e11b8152600481018290526024016103b8565b600081815260026020526040902060060154421115610a33576040516379fa49e160e01b8152600481018290526024016103b8565b600081815260026020526040902060040154610a7a6001600160a01b037f000000000000000000000000000000000000000000000000000000000000000016333084610b65565b610aae6001600160a01b037f0000000000000000000000000000000000000000000000000000000000000000168683610bd6565b50600090815260026020526040902060018101805460ff60a01b1933166001600160a81b031990911617600160a01b17905542600590910155505050565b610af4610c0b565b6001600160a01b038116610b595760405162461bcd60e51b815260206004820152602660248201527f4f776e61626c653a206e6577206f776e657220697320746865207a65726f206160448201526564647265737360d01b60648201526084016103b8565b610b6281610c6a565b50565b6040516001600160a01b0380851660248301528316604482015260648101829052610bd09085906323b872dd60e01b906084015b60408051601f198184030181529190526020810180516001600160e01b03166001600160e01b031990931692909217909152610cba565b50505050565b6040516001600160a01b038316602482015260448101829052610c0690849063a9059cbb60e01b90606401610b99565b505050565b33610c146106cb565b6001600160a01b0316146105625760405162461bcd60e51b815260206004820181905260248201527f4f776e61626c653a2063616c6c6572206973206e6f7420746865206f776e657260448201526064016103b8565b600080546001600160a01b038381166001600160a01b0319831681178455604051919092169283917f8be0079c531659141344cd1fd0a4f28419497f9722a3daafe3b4186f6b6457e09190a35050565b6000610d0f826040518060400160405280602081526020017f5361666545524332303a206c6f772d6c6576656c2063616c6c206661696c6564815250856001600160a01b0316610d8c9092919063ffffffff16565b805190915015610c065780806020019051810190610d2d91906110cf565b610c065760405162461bcd60e51b815260206004820152602a60248201527f5361666545524332303a204552433230206f7065726174696f6e20646964206e6044820152691bdd081cdd58d8d9595960b21b60648201526084016103b8565b6060610d9b8484600085610da5565b90505b9392505050565b606082471015610e065760405162461bcd60e51b815260206004820152602660248201527f416464726573733a20696e73756666696369656e742062616c616e636520666f6044820152651c8818d85b1b60d21b60648201526084016103b8565b6001600160a01b0385163b610e5d5760405162461bcd60e51b815260206004820152601d60248201527f416464726573733a2063616c6c20746f206e6f6e2d636f6e747261637400000060448201526064016103b8565b600080866001600160a01b03168587604051610e79919061111d565b60006040518083038185875af1925050503d8060008114610eb6576040519150601f19603f3d011682016040523d82523d6000602084013e610ebb565b606091505b5091509150610ecb828286610ed6565b979650505050505050565b60608315610ee5575081610d9e565b825115610ef55782518084602001fd5b8160405162461bcd60e51b81526004016103b89190611139565b600060208284031215610f2157600080fd5b5035919050565b80356001600160a01b0381168114610f3f57600080fd5b919050565b600080600060608486031215610f5957600080fd5b610f6284610f28565b9250610f7060208501610f28565b9150604084013590509250925092565b60008060008060808587031215610f9657600080fd5b610f9f85610f28565b966020860135965060408601359560600135945092505050565b60008060408385031215610fcc57600080fd5b610fd583610f28565b946020939093013593505050565b60008060008060808587031215610ff957600080fd5b61100285610f28565b935061101060208601610f28565b925061101e60408601610f28565b9396929550929360600135925050565b60006020828403121561104057600080fd5b610d9e82610f28565b634e487b7160e01b600052601160045260246000fd5b600081600019048311821515161561107957611079611049565b500290565b60008282101561109057611090611049565b500390565b6000826110b257634e487b7160e01b600052601260045260246000fd5b500490565b600082198211156110ca576110ca611049565b500190565b6000602082840312156110e157600080fd5b81518015158114610d9e57600080fd5b60005b8381101561110c5781810151838201526020016110f4565b83811115610bd05750506000910152565b6000825161112f8184602087016110f1565b9190910192915050565b60208152600082518060208401526111588160408501602087016110f1565b601f01601f1916919091016040019291505056fea26469706673582212203a8d03f14402513965076501109ff60b3b9ea7400f81803ce0b799e217888a1f64736f6c634300080d0033",
  "linkReferences": {},
  "deployedLinkReferences": {}
}